{
  "address": "0x5FbDB2315678afecb367f032d93F642f64180aa3",
  "abi": [
    {
      "inputs": [
        {
          "internalType": "address",
          "name": "nftAddress",
          "type": "address"
        },
        {
          "internalType": "uint256",
          "name": "tokenId",
          "type": "uint256"
        }
      ],
      "name": "AlreadyListed",
      "type": "error"
    },
    {
      "inputs": [],
      "name": "NoProceeds",
      "type": "error"
    },
    {
      "inputs": [],
      "name": "NotApprovedForMarketplace",
      "type": "error"
    },
    {
      "inputs": [
        {
          "internalType": "address",
          "name": "nftAddress",
          "type": "address"
        },
        {
          "internalType": "uint256",
          "name": "tokenId",
          "type": "uint256"
        }
      ],
      "name": "NotListed",
      "type": "error"
    },
    {
      "inputs": [],
      "name": "NotOwner",
      "type": "error"
    },
    {
      "inputs": [],
      "name": "PriceMustBeAboveZero",
      "type": "error"
    },
    {
      "inputs": [
        {
          "internalType": "address",
          "name": "nftAddress",
          "type": "address"
        },
        {
          "internalType": "uint256",
          "name": "tokenId",
          "type": "uint256"
        },
        {
          "internalType": "uint256",
          "name": "price",
          "type": "uint256"
        }
      ],
      "name": "PriceNotMet",
      "type": "error"
    },
    {
      "anonymous": false,
      "inputs": [
        {
          "indexed": true,
          "internalType": "address",
          "name": "buyer",
          "type": "address"
        },
        {
          "indexed": true,
          "internalType": "address",
          "name": "nftAddress",
          "type": "address"
        },
        {
          "indexed": true,
          "internalType": "uint256",
          "name": "tokenId",
          "type": "uint256"
        },
        {
          "indexed": false,
          "internalType": "uint256",
          "name": "price",
          "type": "uint256"
        }
      ],
      "name": "ItemBought",
      "type": "event"
    },
    {
      "anonymous": false,
      "inputs": [
        {
          "indexed": true,
          "internalType": "address",
          "name": "seller",
          "type": "address"
        },
        {
          "indexed": true,
          "internalType": "address",
          "name": "nftAddress",
          "type": "address"
        },
        {
          "indexed": true,
          "internalType": "uint256",
          "name": "tokenId",
          "type": "uint256"
        }
      ],
      "name": "ItemCanceled",
      "type": "event"
    },
    {
      "anonymous": false,
      "inputs": [
        {
          "indexed": true,
          "internalType": "address",
          "name": "seller",
          "type": "address"
        },
        {
          "indexed": true,
          "internalType": "address",
          "name": "nftAddress",
          "type": "address"
        },
        {
          "indexed": true,
          "internalType": "uint256",
          "name": "tokenId",
          "type": "uint256"
        },
        {
          "indexed": false,
          "internalType": "uint256",
          "name": "price",
          "type": "uint256"
        }
      ],
      "name": "ItemListed",
      "type": "event"
    },
    {
      "inputs": [
        {
          "internalType": "address",
          "name": "_nftAddress",
          "type": "address"
        },
        {
          "internalType": "uint256",
          "name": "_tokenId",
          "type": "uint256"
        },
        {
          "internalType": "address",
          "name": "_owner",
          "type": "address"
        }
      ],
      "name": "buyItem",
      "outputs": [],
      "stateMutability": "payable",
      "type": "function"
    },
    {
      "inputs": [
        {
          "internalType": "address",
          "name": "nftAddress",
          "type": "address"
        },
        {
          "internalType": "uint256",
          "name": "tokenId",
          "type": "uint256"
        }
      ],
      "name": "cancelListing",
      "outputs": [],
      "stateMutability": "nonpayable",
      "type": "function"
    },
    {
      "inputs": [
        {
          "internalType": "address",
          "name": "_nftAddress",
          "type": "address"
        },
        {
          "internalType": "uint256",
          "name": "_tokenId",
          "type": "uint256"
        }
      ],
      "name": "confirmDelivery",
      "outputs": [],
      "stateMutability": "nonpayable",
      "type": "function"
    },
    {
      "inputs": [
        {
          "internalType": "address",
          "name": "nftAddress",
          "type": "address"
        },
        {
          "internalType": "uint256",
          "name": "tokenId",
          "type": "uint256"
        }
      ],
      "name": "getListing",
      "outputs": [
        {
          "components": [
            {
              "internalType": "uint256",
              "name": "price",
              "type": "uint256"
            },
            {
              "internalType": "address",
              "name": "seller",
              "type": "address"
            },
            {
              "internalType": "bool",
              "name": "isPhysicalItem",
              "type": "bool"
            },
            {
              "internalType": "enum NftMarketplace.Status",
              "name": "currStatus",
              "type": "uint8"
            }
          ],
          "internalType": "struct NftMarketplace.Listing",
          "name": "",
          "type": "tuple"
        }
      ],
      "stateMutability": "view",
      "type": "function"
    },
    {
      "inputs": [
        {
          "internalType": "address",
          "name": "seller",
          "type": "address"
        }
      ],
      "name": "getProceeds",
      "outputs": [
        {
          "internalType": "uint256",
          "name": "",
          "type": "uint256"
        }
      ],
      "stateMutability": "view",
      "type": "function"
    },
    {
      "inputs": [
        {
          "internalType": "address",
          "name": "nftAddress",
          "type": "address"
        },
        {
          "internalType": "uint256",
          "name": "tokenId",
          "type": "uint256"
        },
        {
          "internalType": "uint256",
          "name": "price",
          "type": "uint256"
        },
        {
          "internalType": "bool",
          "name": "_isPhysicalItem",
          "type": "bool"
        }
      ],
      "name": "listItem",
      "outputs": [],
      "stateMutability": "nonpayable",
      "type": "function"
    },
    {
      "inputs": [
        {
          "internalType": "address",
          "name": "operator",
          "type": "address"
        },
        {
          "internalType": "address",
          "name": "from",
          "type": "address"
        },
        {
          "internalType": "uint256",
          "name": "tokenId",
          "type": "uint256"
        },
        {
          "internalType": "bytes",
          "name": "data",
          "type": "bytes"
        }
      ],
      "name": "onERC721Received",
      "outputs": [
        {
          "internalType": "bytes4",
          "name": "",
          "type": "bytes4"
        }
      ],
      "stateMutability": "nonpayable",
      "type": "function"
    },
    {
      "inputs": [
        {
          "internalType": "address",
          "name": "nftAddress",
          "type": "address"
        },
        {
          "internalType": "uint256",
          "name": "tokenId",
          "type": "uint256"
        },
        {
          "internalType": "uint256",
          "name": "newPrice",
          "type": "uint256"
        }
      ],
      "name": "updateListing",
      "outputs": [],
      "stateMutability": "nonpayable",
      "type": "function"
    },
    {
      "inputs": [],
      "name": "withdrawProceeds",
      "outputs": [],
      "stateMutability": "nonpayable",
      "type": "function"
    }
  ],
  "transactionHash": "0x8eddfa8975aab4b415b87a61577db414601f5bb9aa30716f271b1da4169ef039",
  "args": [],
  "numDeployments": 1,
  "solcInputHash": "2f9435a96e98d985a31e18ac573904ac",
  "bytecode": "0x608060405234801561001057600080fd5b506001600081905550612937806100286000396000f3fe6080604052600436106100865760003560e01c80639038e693116100595780639038e6931461015e578063b2ddee0614610175578063b6b9ad031461019e578063be157c82146101c7578063f772adf1146101f057610086565b8063150b7a021461008b578063259ca365146100c857806330cfeda9146100e457806388700d1c14610121575b600080fd5b34801561009757600080fd5b506100b260048036038101906100ad9190612206565b610219565b6040516100bf91906125d1565b60405180910390f35b6100e260048036038101906100dd91906122ce565b61022e565b005b3480156100f057600080fd5b5061010b600480360381019061010691906121ac565b6108c1565b6040516101189190612667565b60405180910390f35b34801561012d57600080fd5b506101486004803603810190610143919061228e565b61090a565b604051610155919061264c565b60405180910390f35b34801561016a57600080fd5b50610173610a2b565b005b34801561018157600080fd5b5061019c6004803603810190610197919061228e565b610b9e565b005b3480156101aa57600080fd5b506101c560048036038101906101c0919061228e565b610f3c565b005b3480156101d357600080fd5b506101ee60048036038101906101e99190612374565b611787565b005b3480156101fc57600080fd5b5061021760048036038101906102129190612321565b611cc7565b005b600063150b7a0260e01b905095945050505050565b60026000541415610274576040517f08c379a000000000000000000000000000000000000000000000000000000000815260040161026b9061262c565b60405180910390fd5b60026000819055506000600260008573ffffffffffffffffffffffffffffffffffffffff1673ffffffffffffffffffffffffffffffffffffffff1681526020019081526020016000206000848152602001908152602001600020604051806080016040529081600082015481526020016001820160009054906101000a900473ffffffffffffffffffffffffffffffffffffffff1673ffffffffffffffffffffffffffffffffffffffff1673ffffffffffffffffffffffffffffffffffffffff1681526020016001820160149054906101000a900460ff161515151581526020016001820160159054906101000a900460ff166002811115610379576103786127bc565b5b600281111561038b5761038a6127bc565b5b815250509050600060028111156103a5576103a46127bc565b5b816060015160028111156103bc576103bb6127bc565b5b146103c657600080fd5b60008160000151116104115783836040517f6831488c000000000000000000000000000000000000000000000000000000008152600401610408929190612571565b60405180910390fd5b806000015134101561046257838382600001516040517f7c9345650000000000000000000000000000000000000000000000000000000081526004016104599392919061259a565b60405180910390fd5b600115158160400151151514156106d1576000849050600182606001906002811115610491576104906127bc565b5b908160028111156104a5576104a46127bc565b5b815250506000826020015190506040518060a001604052808773ffffffffffffffffffffffffffffffffffffffff1681526020018681526020013373ffffffffffffffffffffffffffffffffffffffff1681526020018273ffffffffffffffffffffffffffffffffffffffff16815260200134815250600160008873ffffffffffffffffffffffffffffffffffffffff1673ffffffffffffffffffffffffffffffffffffffff168152602001908152602001600020600087815260200190815260200160002060008201518160000160006101000a81548173ffffffffffffffffffffffffffffffffffffffff021916908373ffffffffffffffffffffffffffffffffffffffff1602179055506020820151816001015560408201518160020160006101000a81548173ffffffffffffffffffffffffffffffffffffffff021916908373ffffffffffffffffffffffffffffffffffffffff16021790555060608201518160030160006101000a81548173ffffffffffffffffffffffffffffffffffffffff021916908373ffffffffffffffffffffffffffffffffffffffff160217905550608082015181600401559050508573ffffffffffffffffffffffffffffffffffffffff166342842e0e846020015130886040518463ffffffff1660e01b81526004016106989392919061253a565b600060405180830381600087803b1580156106b257600080fd5b505af11580156106c6573d6000803e3d6000fd5b5050505050506108b3565b3460036000836020015173ffffffffffffffffffffffffffffffffffffffff1673ffffffffffffffffffffffffffffffffffffffff1681526020019081526020016000206000828254610724919061269e565b92505081905550600260008573ffffffffffffffffffffffffffffffffffffffff1673ffffffffffffffffffffffffffffffffffffffff16815260200190815260200160002060008481526020019081526020016000206000808201600090556001820160006101000a81549073ffffffffffffffffffffffffffffffffffffffff02191690556001820160146101000a81549060ff02191690556001820160156101000a81549060ff021916905550508373ffffffffffffffffffffffffffffffffffffffff166342842e0e826020015133866040518463ffffffff1660e01b81526004016108169392919061253a565b600060405180830381600087803b15801561083057600080fd5b505af1158015610844573d6000803e3d6000fd5b50505050828473ffffffffffffffffffffffffffffffffffffffff163373ffffffffffffffffffffffffffffffffffffffff167f263223b1dd81e51054a4e6f791d45a4a1ddb4aadcd93a2dfd892615c3fdac18784600001516040516108aa9190612667565b60405180910390a45b506001600081905550505050565b6000600360008373ffffffffffffffffffffffffffffffffffffffff1673ffffffffffffffffffffffffffffffffffffffff168152602001908152602001600020549050919050565b6109126120b0565b600260008473ffffffffffffffffffffffffffffffffffffffff1673ffffffffffffffffffffffffffffffffffffffff1681526020019081526020016000206000838152602001908152602001600020604051806080016040529081600082015481526020016001820160009054906101000a900473ffffffffffffffffffffffffffffffffffffffff1673ffffffffffffffffffffffffffffffffffffffff1673ffffffffffffffffffffffffffffffffffffffff1681526020016001820160149054906101000a900460ff161515151581526020016001820160159054906101000a900460ff166002811115610a0d57610a0c6127bc565b5b6002811115610a1f57610a1e6127bc565b5b81525050905092915050565b6000600360003373ffffffffffffffffffffffffffffffffffffffff1673ffffffffffffffffffffffffffffffffffffffff16815260200190815260200160002054905060008111610aa9576040517fc4d8fa8700000000000000000000000000000000000000000000000000000000815260040160405180910390fd5b6000600360003373ffffffffffffffffffffffffffffffffffffffff1673ffffffffffffffffffffffffffffffffffffffff1681526020019081526020016000208190555060003373ffffffffffffffffffffffffffffffffffffffff1682604051610b1490612525565b60006040518083038185875af1925050503d8060008114610b51576040519150601f19603f3d011682016040523d82523d6000602084013e610b56565b606091505b5050905080610b9a576040517f08c379a0000000000000000000000000000000000000000000000000000000008152600401610b919061260c565b60405180910390fd5b5050565b818133600083905060008173ffffffffffffffffffffffffffffffffffffffff16636352211e856040518263ffffffff1660e01b8152600401610be19190612667565b60206040518083038186803b158015610bf957600080fd5b505afa158015610c0d573d6000803e3d6000fd5b505050506040513d601f19601f82011682018060405250810190610c3191906121d9565b90508073ffffffffffffffffffffffffffffffffffffffff168373ffffffffffffffffffffffffffffffffffffffff1614610c98576040517f30cd747100000000000000000000000000000000000000000000000000000000815260040160405180910390fd5b6000600260008973ffffffffffffffffffffffffffffffffffffffff1673ffffffffffffffffffffffffffffffffffffffff1681526020019081526020016000206000888152602001908152602001600020604051806080016040529081600082015481526020016001820160009054906101000a900473ffffffffffffffffffffffffffffffffffffffff1673ffffffffffffffffffffffffffffffffffffffff1673ffffffffffffffffffffffffffffffffffffffff1681526020016001820160149054906101000a900460ff161515151581526020016001820160159054906101000a900460ff166002811115610d9557610d946127bc565b5b6002811115610da757610da66127bc565b5b81525050905060006002811115610dc157610dc06127bc565b5b81606001516002811115610dd857610dd76127bc565b5b14610de257600080fd5b6000816000015111610e2d5787876040517f6831488c000000000000000000000000000000000000000000000000000000008152600401610e24929190612571565b60405180910390fd5b600260008973ffffffffffffffffffffffffffffffffffffffff1673ffffffffffffffffffffffffffffffffffffffff16815260200190815260200160002060008881526020019081526020016000206000808201600090556001820160006101000a81549073ffffffffffffffffffffffffffffffffffffffff02191690556001820160146101000a81549060ff02191690556001820160156101000a81549060ff02191690555050868873ffffffffffffffffffffffffffffffffffffffff163373ffffffffffffffffffffffffffffffffffffffff167f9ba1a3cb55ce8d63d072a886f94d2a744f50cddf82128e897d0661f5ec62315860405160405180910390a45050505050505050565b60026000541415610f82576040517f08c379a0000000000000000000000000000000000000000000000000000000008152600401610f799061262c565b60405180910390fd5b60026000819055506000600160008473ffffffffffffffffffffffffffffffffffffffff1673ffffffffffffffffffffffffffffffffffffffff16815260200190815260200160002060008381526020019081526020016000206040518060a00160405290816000820160009054906101000a900473ffffffffffffffffffffffffffffffffffffffff1673ffffffffffffffffffffffffffffffffffffffff1673ffffffffffffffffffffffffffffffffffffffff168152602001600182015481526020016002820160009054906101000a900473ffffffffffffffffffffffffffffffffffffffff1673ffffffffffffffffffffffffffffffffffffffff1673ffffffffffffffffffffffffffffffffffffffff1681526020016003820160009054906101000a900473ffffffffffffffffffffffffffffffffffffffff1673ffffffffffffffffffffffffffffffffffffffff1673ffffffffffffffffffffffffffffffffffffffff1681526020016004820154815250509050806040015173ffffffffffffffffffffffffffffffffffffffff163373ffffffffffffffffffffffffffffffffffffffff1614611171576040517f08c379a0000000000000000000000000000000000000000000000000000000008152600401611168906125ec565b60405180910390fd5b6000600260008573ffffffffffffffffffffffffffffffffffffffff1673ffffffffffffffffffffffffffffffffffffffff1681526020019081526020016000206000848152602001908152602001600020604051806080016040529081600082015481526020016001820160009054906101000a900473ffffffffffffffffffffffffffffffffffffffff1673ffffffffffffffffffffffffffffffffffffffff1673ffffffffffffffffffffffffffffffffffffffff1681526020016001820160149054906101000a900460ff161515151581526020016001820160159054906101000a900460ff16600281111561126e5761126d6127bc565b5b60028111156112805761127f6127bc565b5b8152505090506001600281111561129a576112996127bc565b5b816060015160028111156112b1576112b06127bc565b5b146112bb57600080fd5b60008160000151116113065783836040517f6831488c0000000000000000000000000000000000000000000000000000000081526004016112fd929190612571565b60405180910390fd5b6000600160008673ffffffffffffffffffffffffffffffffffffffff1673ffffffffffffffffffffffffffffffffffffffff16815260200190815260200160002060008581526020019081526020016000206040518060a00160405290816000820160009054906101000a900473ffffffffffffffffffffffffffffffffffffffff1673ffffffffffffffffffffffffffffffffffffffff1673ffffffffffffffffffffffffffffffffffffffff168152602001600182015481526020016002820160009054906101000a900473ffffffffffffffffffffffffffffffffffffffff1673ffffffffffffffffffffffffffffffffffffffff1673ffffffffffffffffffffffffffffffffffffffff1681526020016003820160009054906101000a900473ffffffffffffffffffffffffffffffffffffffff1673ffffffffffffffffffffffffffffffffffffffff1673ffffffffffffffffffffffffffffffffffffffff1681526020016004820154815250509050806040015173ffffffffffffffffffffffffffffffffffffffff163373ffffffffffffffffffffffffffffffffffffffff16146114b757600080fd5b806080015160036000836060015173ffffffffffffffffffffffffffffffffffffffff1673ffffffffffffffffffffffffffffffffffffffff168152602001908152602001600020600082825461150e919061269e565b92505081905550600260008673ffffffffffffffffffffffffffffffffffffffff1673ffffffffffffffffffffffffffffffffffffffff16815260200190815260200160002060008581526020019081526020016000206000808201600090556001820160006101000a81549073ffffffffffffffffffffffffffffffffffffffff02191690556001820160146101000a81549060ff02191690556001820160156101000a81549060ff021916905550508473ffffffffffffffffffffffffffffffffffffffff166342842e0e308360400151876040518463ffffffff1660e01b81526004016116009392919061253a565b600060405180830381600087803b15801561161a57600080fd5b505af115801561162e573d6000803e3d6000fd5b50505050838573ffffffffffffffffffffffffffffffffffffffff16826040015173ffffffffffffffffffffffffffffffffffffffff167f263223b1dd81e51054a4e6f791d45a4a1ddb4aadcd93a2dfd892615c3fdac18784608001516040516116989190612667565b60405180910390a4600160008673ffffffffffffffffffffffffffffffffffffffff1673ffffffffffffffffffffffffffffffffffffffff1681526020019081526020016000206000858152602001908152602001600020600080820160006101000a81549073ffffffffffffffffffffffffffffffffffffffff021916905560018201600090556002820160006101000a81549073ffffffffffffffffffffffffffffffffffffffff02191690556003820160006101000a81549073ffffffffffffffffffffffffffffffffffffffff02191690556004820160009055505050505060016000819055505050565b8383336000600260008573ffffffffffffffffffffffffffffffffffffffff1673ffffffffffffffffffffffffffffffffffffffff1681526020019081526020016000206000848152602001908152602001600020604051806080016040529081600082015481526020016001820160009054906101000a900473ffffffffffffffffffffffffffffffffffffffff1673ffffffffffffffffffffffffffffffffffffffff1673ffffffffffffffffffffffffffffffffffffffff1681526020016001820160149054906101000a900460ff161515151581526020016001820160159054906101000a900460ff166002811115611887576118866127bc565b5b6002811115611899576118986127bc565b5b8152505090506000816000015111156118eb5783836040517f4a5568d50000000000000000000000000000000000000000000000000000000081526004016118e2929190612571565b60405180910390fd5b878733600083905060008173ffffffffffffffffffffffffffffffffffffffff16636352211e856040518263ffffffff1660e01b815260040161192e9190612667565b60206040518083038186803b15801561194657600080fd5b505afa15801561195a573d6000803e3d6000fd5b505050506040513d601f19601f8201168201806040525081019061197e91906121d9565b90508073ffffffffffffffffffffffffffffffffffffffff168373ffffffffffffffffffffffffffffffffffffffff16146119e5576040517f30cd747100000000000000000000000000000000000000000000000000000000815260040160405180910390fd5b60008b11611a1f576040517fe1abbfc500000000000000000000000000000000000000000000000000000000815260040160405180910390fd5b60008d90503073ffffffffffffffffffffffffffffffffffffffff168173ffffffffffffffffffffffffffffffffffffffff1663081812fc8f6040518263ffffffff1660e01b8152600401611a749190612667565b60206040518083038186803b158015611a8c57600080fd5b505afa158015611aa0573d6000803e3d6000fd5b505050506040513d601f19601f82011682018060405250810190611ac491906121d9565b73ffffffffffffffffffffffffffffffffffffffff1614611b11576040517f4be3a2c500000000000000000000000000000000000000000000000000000000815260040160405180910390fd5b5060405180608001604052808c81526020013373ffffffffffffffffffffffffffffffffffffffff1681526020018b1515815260200160006002811115611b5b57611b5a6127bc565b5b815250600260008f73ffffffffffffffffffffffffffffffffffffffff1673ffffffffffffffffffffffffffffffffffffffff16815260200190815260200160002060008e81526020019081526020016000206000820151816000015560208201518160010160006101000a81548173ffffffffffffffffffffffffffffffffffffffff021916908373ffffffffffffffffffffffffffffffffffffffff16021790555060408201518160010160146101000a81548160ff02191690831515021790555060608201518160010160156101000a81548160ff02191690836002811115611c4a57611c496127bc565b5b02179055509050508b8d73ffffffffffffffffffffffffffffffffffffffff163373ffffffffffffffffffffffffffffffffffffffff167fd547e933094f12a9159076970143ebe73234e64480317844b0dcb36117116de48e604051611cb09190612667565b60405180910390a450505050505050505050505050565b60026000541415611d0d576040517f08c379a0000000000000000000000000000000000000000000000000000000008152600401611d049061262c565b60405180910390fd5b6002600081905550828233600083905060008173ffffffffffffffffffffffffffffffffffffffff16636352211e856040518263ffffffff1660e01b8152600401611d589190612667565b60206040518083038186803b158015611d7057600080fd5b505afa158015611d84573d6000803e3d6000fd5b505050506040513d601f19601f82011682018060405250810190611da891906121d9565b90508073ffffffffffffffffffffffffffffffffffffffff168373ffffffffffffffffffffffffffffffffffffffff1614611e0f576040517f30cd747100000000000000000000000000000000000000000000000000000000815260040160405180910390fd5b6000600260008a73ffffffffffffffffffffffffffffffffffffffff1673ffffffffffffffffffffffffffffffffffffffff1681526020019081526020016000206000898152602001908152602001600020604051806080016040529081600082015481526020016001820160009054906101000a900473ffffffffffffffffffffffffffffffffffffffff1673ffffffffffffffffffffffffffffffffffffffff1673ffffffffffffffffffffffffffffffffffffffff1681526020016001820160149054906101000a900460ff161515151581526020016001820160159054906101000a900460ff166002811115611f0c57611f0b6127bc565b5b6002811115611f1e57611f1d6127bc565b5b81525050905060006002811115611f3857611f376127bc565b5b81606001516002811115611f4f57611f4e6127bc565b5b14611f5957600080fd5b6000816000015111611fa45788886040517f6831488c000000000000000000000000000000000000000000000000000000008152600401611f9b929190612571565b60405180910390fd5b6000871415611fdf576040517fe1abbfc500000000000000000000000000000000000000000000000000000000815260040160405180910390fd5b86600260008b73ffffffffffffffffffffffffffffffffffffffff1673ffffffffffffffffffffffffffffffffffffffff16815260200190815260200160002060008a815260200190815260200160002060000181905550878973ffffffffffffffffffffffffffffffffffffffff163373ffffffffffffffffffffffffffffffffffffffff167fd547e933094f12a9159076970143ebe73234e64480317844b0dcb36117116de48a6040516120959190612667565b60405180910390a45050505050506001600081905550505050565b604051806080016040528060008152602001600073ffffffffffffffffffffffffffffffffffffffff168152602001600015158152602001600060028111156120fc576120fb6127bc565b5b81525090565b600081359050612111816128bc565b92915050565b600081519050612126816128bc565b92915050565b60008135905061213b816128d3565b92915050565b60008083601f840112612157576121566127f0565b5b8235905067ffffffffffffffff811115612174576121736127eb565b5b6020830191508360018202830111156121905761218f6127f5565b5b9250929050565b6000813590506121a6816128ea565b92915050565b6000602082840312156121c2576121c16127ff565b5b60006121d084828501612102565b91505092915050565b6000602082840312156121ef576121ee6127ff565b5b60006121fd84828501612117565b91505092915050565b600080600080600060808688031215612222576122216127ff565b5b600061223088828901612102565b955050602061224188828901612102565b945050604061225288828901612197565b935050606086013567ffffffffffffffff811115612273576122726127fa565b5b61227f88828901612141565b92509250509295509295909350565b600080604083850312156122a5576122a46127ff565b5b60006122b385828601612102565b92505060206122c485828601612197565b9150509250929050565b6000806000606084860312156122e7576122e66127ff565b5b60006122f586828701612102565b935050602061230686828701612197565b925050604061231786828701612102565b9150509250925092565b60008060006060848603121561233a576123396127ff565b5b600061234886828701612102565b935050602061235986828701612197565b925050604061236a86828701612197565b9150509250925092565b6000806000806080858703121561238e5761238d6127ff565b5b600061239c87828801612102565b94505060206123ad87828801612197565b93505060406123be87828801612197565b92505060606123cf8782880161212c565b91505092959194509250565b6123e4816126f4565b82525050565b6123f3816126f4565b82525050565b61240281612706565b82525050565b61241181612712565b82525050565b6124208161277b565b82525050565b600061243360298361268d565b915061243e82612804565b604082019050919050565b6000612456600f8361268d565b915061246182612853565b602082019050919050565b6000612479600083612682565b91506124848261287c565b600082019050919050565b600061249c601f8361268d565b91506124a78261287f565b602082019050919050565b6080820160008201516124c86000850182612507565b5060208201516124db60208501826123db565b5060408201516124ee60408501826123f9565b5060608201516125016060850182612417565b50505050565b61251081612771565b82525050565b61251f81612771565b82525050565b60006125308261246c565b9150819050919050565b600060608201905061254f60008301866123ea565b61255c60208301856123ea565b6125696040830184612516565b949350505050565b600060408201905061258660008301856123ea565b6125936020830184612516565b9392505050565b60006060820190506125af60008301866123ea565b6125bc6020830185612516565b6125c96040830184612516565b949350505050565b60006020820190506125e66000830184612408565b92915050565b6000602082019050818103600083015261260581612426565b9050919050565b6000602082019050818103600083015261262581612449565b9050919050565b600060208201905081810360008301526126458161248f565b9050919050565b600060808201905061266160008301846124b2565b92915050565b600060208201905061267c6000830184612516565b92915050565b600081905092915050565b600082825260208201905092915050565b60006126a982612771565b91506126b483612771565b9250827fffffffffffffffffffffffffffffffffffffffffffffffffffffffffffffffff038211156126e9576126e861278d565b5b828201905092915050565b60006126ff82612751565b9050919050565b60008115159050919050565b60007fffffffff0000000000000000000000000000000000000000000000000000000082169050919050565b600081905061274c826128a8565b919050565b600073ffffffffffffffffffffffffffffffffffffffff82169050919050565b6000819050919050565b60006127868261273e565b9050919050565b7f4e487b7100000000000000000000000000000000000000000000000000000000600052601160045260246000fd5b7f4e487b7100000000000000000000000000000000000000000000000000000000600052602160045260246000fd5b600080fd5b600080fd5b600080fd5b600080fd5b600080fd5b7f4f6e6c7920746865207075726368617365722063616e2063616c6c207468697360008201527f2066756e6374696f6e0000000000000000000000000000000000000000000000602082015250565b7f5472616e73666572206661696c65640000000000000000000000000000000000600082015250565b50565b7f5265656e7472616e637947756172643a207265656e7472616e742063616c6c00600082015250565b600381106128b9576128b86127bc565b5b50565b6128c5816126f4565b81146128d057600080fd5b50565b6128dc81612706565b81146128e757600080fd5b50565b6128f381612771565b81146128fe57600080fd5b5056fea2646970667358221220371b16d22fcd2cfd3948f0dfb5189c5ab31fbd38c0d7aafc9664ab3dd601255b64736f6c63430008070033",
  "devdoc": {
    "kind": "dev",
    "methods": {
      "onERC721Received(address,address,uint256,bytes)": {
        "details": "Whenever an {IERC721} `tokenId` token is transferred to this contract via {IERC721-safeTransferFrom} by `operator` from `from`, this function is called. It must return its Solidity selector to confirm the token transfer. If any other value is returned or the interface is not implemented by the recipient, the transfer will be reverted. The selector can be obtained in Solidity with `IERC721Receiver.onERC721Received.selector`."
      }
    },
    "version": 1
  },
  "userdoc": {
    "kind": "user",
    "methods": {},
    "version": 1
  },
  "storageLayout": {
    "storage": [
      {
        "astId": 10,
        "contract": "contracts/Market.sol:NftMarketplace",
        "label": "_status",
        "offset": 0,
        "slot": "0",
        "type": "t_uint256"
      },
      {
        "astId": 266,
        "contract": "contracts/Market.sol:NftMarketplace",
        "label": "escrowDebt",
        "offset": 0,
        "slot": "1",
        "type": "t_mapping(t_address,t_mapping(t_uint256,t_struct(escrowRecords)259_storage))"
      },
      {
        "astId": 301,
        "contract": "contracts/Market.sol:NftMarketplace",
        "label": "s_listings",
        "offset": 0,
        "slot": "2",
        "type": "t_mapping(t_address,t_mapping(t_uint256,t_struct(Listing)248_storage))"
      },
      {
        "astId": 305,
        "contract": "contracts/Market.sol:NftMarketplace",
        "label": "s_proceeds",
        "offset": 0,
        "slot": "3",
        "type": "t_mapping(t_address,t_uint256)"
      }
    ],
    "types": {
      "t_address": {
        "encoding": "inplace",
        "label": "address",
        "numberOfBytes": "20"
      },
      "t_bool": {
        "encoding": "inplace",
        "label": "bool",
        "numberOfBytes": "1"
      },
      "t_enum(Status)238": {
        "encoding": "inplace",
        "label": "enum NftMarketplace.Status",
        "numberOfBytes": "1"
      },
      "t_mapping(t_address,t_mapping(t_uint256,t_struct(Listing)248_storage))": {
        "encoding": "mapping",
        "key": "t_address",
        "label": "mapping(address => mapping(uint256 => struct NftMarketplace.Listing))",
        "numberOfBytes": "32",
        "value": "t_mapping(t_uint256,t_struct(Listing)248_storage)"
      },
      "t_mapping(t_address,t_mapping(t_uint256,t_struct(escrowRecords)259_storage))": {
        "encoding": "mapping",
        "key": "t_address",
        "label": "mapping(address => mapping(uint256 => struct NftMarketplace.escrowRecords))",
        "numberOfBytes": "32",
        "value": "t_mapping(t_uint256,t_struct(escrowRecords)259_storage)"
      },
      "t_mapping(t_address,t_uint256)": {
        "encoding": "mapping",
        "key": "t_address",
        "label": "mapping(address => uint256)",
        "numberOfBytes": "32",
        "value": "t_uint256"
      },
      "t_mapping(t_uint256,t_struct(Listing)248_storage)": {
        "encoding": "mapping",
        "key": "t_uint256",
        "label": "mapping(uint256 => struct NftMarketplace.Listing)",
        "numberOfBytes": "32",
        "value": "t_struct(Listing)248_storage"
      },
      "t_mapping(t_uint256,t_struct(escrowRecords)259_storage)": {
        "encoding": "mapping",
        "key": "t_uint256",
        "label": "mapping(uint256 => struct NftMarketplace.escrowRecords)",
        "numberOfBytes": "32",
        "value": "t_struct(escrowRecords)259_storage"
      },
      "t_struct(Listing)248_storage": {
        "encoding": "inplace",
        "label": "struct NftMarketplace.Listing",
        "members": [
          {
            "astId": 240,
            "contract": "contracts/Market.sol:NftMarketplace",
            "label": "price",
            "offset": 0,
            "slot": "0",
            "type": "t_uint256"
          },
          {
            "astId": 242,
            "contract": "contracts/Market.sol:NftMarketplace",
            "label": "seller",
            "offset": 0,
            "slot": "1",
            "type": "t_address"
          },
          {
            "astId": 244,
            "contract": "contracts/Market.sol:NftMarketplace",
            "label": "isPhysicalItem",
            "offset": 20,
            "slot": "1",
            "type": "t_bool"
          },
          {
            "astId": 247,
            "contract": "contracts/Market.sol:NftMarketplace",
            "label": "currStatus",
            "offset": 21,
            "slot": "1",
            "type": "t_enum(Status)238"
          }
        ],
        "numberOfBytes": "64"
      },
      "t_struct(escrowRecords)259_storage": {
        "encoding": "inplace",
        "label": "struct NftMarketplace.escrowRecords",
        "members": [
          {
            "astId": 250,
            "contract": "contracts/Market.sol:NftMarketplace",
            "label": "nftAddress",
            "offset": 0,
            "slot": "0",
            "type": "t_address"
          },
          {
            "astId": 252,
            "contract": "contracts/Market.sol:NftMarketplace",
            "label": "tokenId",
            "offset": 0,
            "slot": "1",
            "type": "t_uint256"
          },
          {
            "astId": 254,
            "contract": "contracts/Market.sol:NftMarketplace",
            "label": "purchaser",
            "offset": 0,
            "slot": "2",
            "type": "t_address"
          },
          {
            "astId": 256,
            "contract": "contracts/Market.sol:NftMarketplace",
            "label": "seller",
            "offset": 0,
            "slot": "3",
            "type": "t_address"
          },
          {
            "astId": 258,
            "contract": "contracts/Market.sol:NftMarketplace",
            "label": "price",
            "offset": 0,
            "slot": "4",
            "type": "t_uint256"
          }
        ],
        "numberOfBytes": "160"
      },
      "t_uint256": {
        "encoding": "inplace",
        "label": "uint256",
        "numberOfBytes": "32"
      }
    }
  }
}